:100000000C940A010C942C010C942C010C942C01DE
:100010000C942C010C942C010C94A4030C94D40388
:100020000C9404040C9434040C94A3020C942C013E
:100030000C942C010C942C010C9489020C942C012E
:100040000C942C010C942C010C942C010C942C017C
:100050000C942C010C942C010C942C010C942C016C
:100060000C942C010C9436060C940A060C9462062F
:100070000C94BC060C9490060C94E8060C942C018D
:100080000C942C010C942C010C942C010C942C013C
:100090000C942C010C942C010C942C010C942C012C
:1000A0000C942C010C942C010C942C010C942C011C
:1000B0000C942C010C942C010C942C010C942C010C
:1000C0000C942C010C942C010C942C010C942C01FC
:1000D0000C942C010C942C010C942C010C942C01EC
:1000E0000C942C010C942C010C944E080C942208B6
:1000F0000C947A080C94D4080C94A8080C94000969
:100100000C942C010C942C010C942C010C942C01BB
:100110000C942C010C942C010C942C010C942C01AB
:100120000C942C010C942C010C942C010C942C019B
:100130000C942C010C942C010C942C010C942C018B
:100140000C942C010C942C010C942C010C942C017B
:100150000C942C010C942C010C942C010C942C016B
:100160000C9442070C9416070C946E070C94C80765
:100170000C949C070C94F4070C942C010C942C0107
:100180000C942C010C942C010C942C010C942C013B
:100190000C942C010C942C010C942C010C942C012B
:1001A0000C942C010C942C010C942C010C942C011B
:1001B0000C942C010C942C010C942C010C942C010B
:1001C0000C942C010C942C010C942C010C942C01FB
:1001D0000C942C010C942C010C942C010C945A09B5
:1001E0000C942E090C948609616C6C6F63546173D6
:1001F0006B3A204F7574206F66206D656D6F727954
:100200002E0D0A0048656C6C6F2C20576F726C6461
:10021000210D0A0011241FBECFEFDFE3DEBFCDBFEB
:1002200000E00CBF10E2A0E0B0E2E2E0F2E200E0A9
:100230000BBF02C007900D92A230B107D9F71BBEC9
:1002400011E2A2E0B0E201C01D92AD3EB107E1F7BC
:100250000E94E00D0C94FF100C940000E4E0F0E22A
:1002600020E08081882361F430E0C90143E0880FF9
:10027000991F4A95E1F7821B930B8E5F9F4D08955E
:100280002F5F3796203469F760910020709101202C
:1002900088EE91E00E94360E80E090E00895EF92A3
:1002A000FF920F931F93CF93DF93EC017B010E948A
:1002B0002E018C01009799F0FC01209721F4128205
:1002C00000E010E00CC0C083D18381E08283C801CC
:1002D0000396B7010E941703F801E582F682C80170
:1002E000DF91CF911F910F91FF90EF900895EF92C2
:1002F000FF920F931F93CF93DF93EC017B010E943A
:100300002E018C01009799F0FC01209721F41282B4
:1003100000E010E00CC0C083D18381E08283C8017B
:100320000396B7010E941703F80115821682C801CF
:10033000DF91CF911F910F91FF90EF900895CF9390
:10034000DF93EC010E942E01FC01009751F02097F1
:1003500021F41282E0E0F0E004C0C083D18382E0A7
:100360008283CF01DF91CF9108950F931F93CF9395
:10037000DF93EC018B010E942E01FC01009761F0DC
:10038000209721F41282E0E0F0E006C0C083D18320
:1003900083E0828303831483CF01DF91CF911F9188
:1003A0000F9108950F931F93CF93DF93EC018B016F
:1003B0000E942E01FC01009761F0209721F4128227
:1003C000E0E0F0E006C0C083D18384E08283038351
:1003D0001483CF01DF91CF911F910F910895009762
:1003E00011F0FC0112820895EF92FF920F931F9378
:1003F000CF93DF938C0174E0E72E70E2F72EC0E01C
:10040000D0E0F7018081813069F5CE0163E0880F8B
:10041000991F6A95E1F78C1B9D0B8E5F9F4D809312
:10042000C2219093C32103960E94FA028823D1F43B
:10043000E091C221F091C32165817681611571053A
:1004400049F0CF0103960E94E702E091C221F091AA
:10045000C32103C0309709F012820190F081E02D92
:10046000C8011995219687E090E0E80EF91EC03486
:10047000D10539F6C0E0D0E0FE0153E0EE0FFF1FDA
:100480005A95E1F7EC1BFD0BEE5FFF4DE093C221A7
:10049000F093C3218281833041F08430B9F08230FF
:1004A00061F5309769F012820BC00380F481E02D72
:1004B000C8011995882309F1E091C221F091C32167
:1004C0000190F081E02DC801199517C00380F481D7
:1004D000E02DC8011995882381F0E091C221F091A7
:1004E000C3210190F081E02DC8011995E091C2214E
:1004F000F091C321309709F012822196C034D105C2
:1005000009F0BACFDF91CF911F910F91FF90EF903B
:1005100008951F920F920FB60F9211248F939F93FD
:100520008091C4219091C52101968093C42190931C
:10053000C52181E08093EC219F918F910F900FBE98
:100540000F901F9018951F920F920FB60F921124C3
:100550008F939F938091C4219091C52101968093A0
:10056000C4219093C52181E08093EC219F918F91CC
:100570000F900FBE0F901F901895E0E4F0E063839A
:10058000E0E0F4E04283228733878083089510926D
:10059000C4211092C521E0E4F0E08381816083836F
:1005A0000895E0E4F0E083818E7F838308951092C4
:1005B000EC21E0E0F8E011826683178210A211A21C
:1005C00046A357A380830895109200080895FC0164
:1005D000009739F07F7780819181860F971F808304
:1005E000918308952FB7F8948091C4219091C521EB
:1005F0002FBF0895CF93DF93EC010097A1F00E94E5
:10060000F20228813981BC0162277327AC015F7730
:100610003F7781E077FD04C04217530728F003C0FD
:100620004217530708F480E0DF91CF9108950F93AC
:100630001F93CF93DF938C01EB01009741F00E9451
:10064000F202DF77C80FD91FF801C083D183DF9191
:10065000CF911F910F910895E0E5F0E0908121E0A6
:1006600030E002C0220F331F8A95E2F7922B90836D
:100670000895E0E5F0E0908121E030E002C0220F33
:10068000331F8A95E2F72095292320830895682B4C
:10069000E0E5F0E0628308956F71682BE0E5F0E03B
:1006A00065830895E0E4F0E091819370982B88EDE4
:1006B00084BF91830895E0E5F0E0882311F4168269
:1006C00009C082E08283809150008860809350004E
:1006D00083E0868380914000813029F0813050F0A2
:1006E000843079F403C080936000089580915500B0
:1006F000807C21F481E080936800089581E08093FC
:100700006000089510926800109260000895CF93E1
:10071000DF930F92CDB7DEB789830E94820321E079
:1007200030E08981082E02C0220F331F0A94E2F7BD
:10073000909151009223E1F398ED94BF8093400093
:100740000F90DF91CF9108951F920F920FB60F92E5
:100750000BB60F9211242F933F934F935F936F9398
:100760007F938F939F93AF93BF93EF93FF93E0910A
:10077000CC21F091CD211995E0E0F1E081898061F3
:10078000818BFF91EF91BF91AF919F918F917F915D
:100790006F915F914F913F912F910F900BBE0F90F2
:1007A0000FBE0F901F9018951F920F920FB60F92C9
:1007B0000BB60F9211242F933F934F935F936F9338
:1007C0007F938F939F93AF93BF93EF93FF93E091AA
:1007D000CA21F091CB211995E0E0F1E081A180617F
:1007E00081A3FF91EF91BF91AF919F918F917F91E5
:1007F0006F915F914F913F912F910F900BBE0F9092
:100800000FBE0F901F9018951F920F920FB60F9268
:100810000BB60F9211242F933F934F935F936F93D7
:100820007F938F939F93AF93BF93EF93FF93E09149
:10083000C821F091C9211995E0E0F1E081A980611A
:1008400081ABFF91EF91BF91AF919F918F917F917C
:100850006F915F914F913F912F910F900BBE0F9031
:100860000FBE0F901F9018951F920F920FB60F9208
:100870000BB60F9211242F933F934F935F936F9377
:100880007F938F939F93AF93BF93EF93FF93E091E9
:10089000C621F091C7211995E1E4F1E080818061E2
:1008A0008083FF91EF91BF91AF919F918F917F9145
:1008B0006F915F914F913F912F910F900BBE0F90D1
:1008C0000FBE0F901F901895682B6093000108953C
:1008D000E0E0F1E08081806880830895E0E0F1E06D
:1008E00080818F7780830895CF92EF920F93FC01E0
:1008F0006460608380E381832295207F2E29429566
:10090000440F440F407C422B000F000F042B028346
:10091000C3821482158216820F91EF90CF900895B2
:10092000FC0181818C7F81834115510519F0818102
:10093000862B818381E0E032F807B9F081E0E13273
:10094000F8072CF481E0E031F807E9F409C081E010
:10095000E033F80779F081E0E034F807A1F40FC044
:100960004093CC215093CD2108954093CA215093B8
:10097000CB2108954093C8215093C92108954093F5
:10098000C6215093C7210895FC016683808180624F
:1009900080830895FC018FB7F89460877187128671
:1009A0008FBF0895FC018FB7F8946487758716860A
:1009B0008FBF08952FB7F894FC01648375832FBF10
:1009C00008952FB7F894FC01848195812FBF089575
:1009D000FC018081806880830895FC0180818F778D
:1009E00080830895FC01808180780895E091CE2174
:1009F000F091CF21918195FFFDCF808380E090E041
:100A00000895E091CE21F091CF21808380E090E0A5
:100A10000895CF93C62F8093CE219093CF21642F3A
:100A2000422F0E94D209E0910020F0910120CC23B6
:100A300019F486EF94E002C081E095E08087918709
:100A40001286138682E0838314861586CF910895DB
:100A5000E091DE21F091DF21928581E0911180E02B
:100A60000895E091DE21F091DF21968581E09111DA
:100A700080E00895E091E021F091E121928581E00C
:100A8000911180E00895E091E021F091E1219685B7
:100A900081E0911180E00895E091E221F091E3215D
:100AA000928581E0911180E00895E091E221F0913A
:100AB000E321968581E0911180E00895E091E421A1
:100AC000F091E521928581E0911180E00895E09117
:100AD000E421F091E521968581E0911180E008956F
:100AE000E091E621F091E721928581E0911180E08B
:100AF0000895E091E621F091E721968581E091113A
:100B000080E00895E091E821F091E921928581E06B
:100B1000911180E00895E091E821F091E921968516
:100B200081E0911180E00895E091EA21F091EB21BC
:100B3000928581E0911180E00895E091EA21F091A1
:100B4000EB21968581E0911180E0089580E491E0A9
:100B50000E94F20491E0811190E0892F089580E3D2
:100B600091E00E94F20491E0811190E0892F0895B4
:100B700080E291E00E94F20491E0811190E0892FDF
:100B8000089580E191E00E94F20491E0811190E0EB
:100B9000892F0895CF93DF93FC018285882371F01C
:100BA000A081B181C085D18588818C938085918514
:100BB00001968087918782858150828782858823EC
:100BC00031F40190F081E02D83818C7F8383DF916C
:100BD000CF910895CF93DF93FC018685882371F030
:100BE000A485B585C081D18188818C9384859585C4
:100BF0000196848795878685815086878685882398
:100C000031F40190F081E02D83818F7C8383DF912B
:100C1000CF9108951F920F920FB60F920BB60F92BD
:100C200011242F933F934F935F936F937F938F93F1
:100C30009F93AF93BF93EF93FF938091DE219091A9
:100C4000DF210E94CA05FF91EF91BF91AF919F9163
:100C50008F917F916F915F914F913F912F910F9065
:100C60000BBE0F900FBE0F901F9018951F920F9202
:100C70000FB60F920BB60F9211242F933F934F9301
:100C80005F936F937F938F939F93AF93BF93EF93F4
:100C9000FF938091DE219091DF210E94EA05FF9170
:100CA000EF91BF91AF919F918F917F916F915F91E4
:100CB0004F913F912F910F900BBE0F900FBE0F9051
:100CC0001F9018951F920F920FB60F920BB60F92AE
:100CD00011242F933F934F935F936F937F938F9341
:100CE0009F93AF93BF93EF93FF93E091DE21F09139
:100CF000DF210680F781E02D1995FF91EF91BF91DB
:100D0000AF919F918F917F916F915F914F913F91A3
:100D10002F910F900BBE0F900FBE0F901F90189544
:100D20001F920F920FB60F920BB60F9211242F93B2
:100D30003F934F935F936F937F938F939F93AF9363
:100D4000BF93EF93FF938091E0219091E1210E9466
:100D5000CA05FF91EF91BF91AF919F918F917F91C4
:100D60006F915F914F913F912F910F900BBE0F901C
:100D70000FBE0F901F9018951F920F920FB60F92F3
:100D80000BB60F9211242F933F934F935F936F9362
:100D90007F938F939F93AF93BF93EF93FF93809134
:100DA000E0219091E1210E94EA05FF91EF91BF912E
:100DB000AF919F918F917F916F915F914F913F91F3
:100DC0002F910F900BBE0F900FBE0F901F90189594
:100DD0001F920F920FB60F920BB60F9211242F9302
:100DE0003F934F935F936F937F938F939F93AF93B3
:100DF000BF93EF93FF93E091E021F091E121068012
:100E0000F781E02D1995FF91EF91BF91AF919F91DF
:100E10008F917F916F915F914F913F912F910F90A3
:100E20000BBE0F900FBE0F901F9018951F920F9240
:100E30000FB60F920BB60F9211242F933F934F933F
:100E40005F936F937F938F939F93AF93BF93EF9332
:100E5000FF938091E2219091E3210E94CA05FF91C6
:100E6000EF91BF91AF919F918F917F916F915F9122
:100E70004F913F912F910F900BBE0F900FBE0F908F
:100E80001F9018951F920F920FB60F920BB60F92EC
:100E900011242F933F934F935F936F937F938F937F
:100EA0009F93AF93BF93EF93FF938091E221909133
:100EB000E3210E94EA05FF91EF91BF91AF919F91CD
:100EC0008F917F916F915F914F913F912F910F90F3
:100ED0000BBE0F900FBE0F901F9018951F920F9290
:100EE0000FB60F920BB60F9211242F933F934F938F
:100EF0005F936F937F938F939F93AF93BF93EF9382
:100F0000FF93E091E221F091E3210680F781E02D4B
:100F10001995FF91EF91BF91AF919F918F917F9123
:100F20006F915F914F913F912F910F900BBE0F905A
:100F30000FBE0F901F9018951F920F920FB60F9231
:100F40000BB60F9211242F933F934F935F936F93A0
:100F50007F938F939F93AF93BF93EF93FF93809172
:100F6000E4219091E5210E94CA05FF91EF91BF9184
:100F7000AF919F918F917F916F915F914F913F9131
:100F80002F910F900BBE0F900FBE0F901F901895D2
:100F90001F920F920FB60F920BB60F9211242F9340
:100FA0003F934F935F936F937F938F939F93AF93F1
:100FB000BF93EF93FF938091E4219091E5210E94EC
:100FC000EA05FF91EF91BF91AF919F918F917F9132
:100FD0006F915F914F913F912F910F900BBE0F90AA
:100FE0000FBE0F901F9018951F920F920FB60F9281
:100FF0000BB60F9211242F933F934F935F936F93F0
:101000007F938F939F93AF93BF93EF93FF93E09161
:10101000E421F091E5210680F781E02D1995FF91FB
:10102000EF91BF91AF919F918F917F916F915F9160
:101030004F913F912F910F900BBE0F900FBE0F90CD
:101040001F9018951F920F920FB60F920BB60F922A
:1010500011242F933F934F935F936F937F938F93BD
:101060009F93AF93BF93EF93FF938091E62190916D
:10107000E7210E94CA05FF91EF91BF91AF919F9127
:101080008F917F916F915F914F913F912F910F9031
:101090000BBE0F900FBE0F901F9018951F920F92CE
:1010A0000FB60F920BB60F9211242F933F934F93CD
:1010B0005F936F937F938F939F93AF93BF93EF93C0
:1010C000FF938091E6219091E7210E94EA05FF912C
:1010D000EF91BF91AF919F918F917F916F915F91B0
:1010E0004F913F912F910F900BBE0F900FBE0F901D
:1010F0001F9018951F920F920FB60F920BB60F927A
:1011000011242F933F934F935F936F937F938F930C
:101110009F93AF93BF93EF93FF93E091E621F091FC
:10112000E7210680F781E02D1995FF91EF91BF919E
:10113000AF919F918F917F916F915F914F913F916F
:101140002F910F900BBE0F900FBE0F901F90189510
:101150001F920F920FB60F920BB60F9211242F937E
:101160003F934F935F936F937F938F939F93AF932F
:10117000BF93EF93FF938091E8219091E9210E9422
:10118000CA05FF91EF91BF91AF919F918F917F9190
:101190006F915F914F913F912F910F900BBE0F90E8
:1011A0000FBE0F901F9018951F920F920FB60F92BF
:1011B0000BB60F9211242F933F934F935F936F932E
:1011C0007F938F939F93AF93BF93EF93FF93809100
:1011D000E8219091E9210E94EA05FF91EF91BF91EA
:1011E000AF919F918F917F916F915F914F913F91BF
:1011F0002F910F900BBE0F900FBE0F901F90189560
:101200001F920F920FB60F920BB60F9211242F93CD
:101210003F934F935F936F937F938F939F93AF937E
:10122000BF93EF93FF93E091E821F091E9210680CD
:10123000F781E02D1995FF91EF91BF91AF919F91AB
:101240008F917F916F915F914F913F912F910F906F
:101250000BBE0F900FBE0F901F9018951F920F920C
:101260000FB60F920BB60F9211242F933F934F930B
:101270005F936F937F938F939F93AF93BF93EF93FE
:10128000FF938091EA219091EB210E94CA05FF9182
:10129000EF91BF91AF919F918F917F916F915F91EE
:1012A0004F913F912F910F900BBE0F900FBE0F905B
:1012B0001F9018951F920F920FB60F920BB60F92B8
:1012C00011242F933F934F935F936F937F938F934B
:1012D0009F93AF93BF93EF93FF938091EA219091F7
:1012E000EB210E94EA05FF91EF91BF91AF919F9191
:1012F0008F917F916F915F914F913F912F910F90BF
:101300000BBE0F900FBE0F901F9018951F920F925B
:101310000FB60F920BB60F9211242F933F934F935A
:101320005F936F937F938F939F93AF93BF93EF934D
:10133000FF93E091EA21F091EB210680F781E02D07
:101340001995FF91EF91BF91AF919F918F917F91EF
:101350006F915F914F913F912F910F900BBE0F9026
:101360000FBE0F901F9018950F93FC01606C642BBB
:1013700065832683078388E184830F9108950F9303
:10138000FC01606C642B65832683078388E084837B
:101390000F910895FC0183E085836683478388E18C
:1013A00084830895FC0183E085836683478388E016
:1013B00084830895FC018081808180810895FC01EF
:1013C0008481886184838181806C81838081808134
:1013D00080810895FC018481886084838181806C90
:1013E00081838081808180810895FC018481877E52
:1013F000848308950F931F93CF93FC018B01BA014F
:101400008081808180818181806C81832D3F08F083
:101410002CEF30E0C0E024C0818187FF09C08081CB
:101420006115710521F0DB01A30FB11D8C933F5FA6
:10143000C217B0F44C2F50E0832F90E0029684172F
:10144000950774F0818185FF0BC00115110529F006
:10145000400F511FDA018C9101C080E08083CF5F83
:101460003217D0F2CF911F910F910895CF93DF9350
:10147000DC01EB01BA018C918C918C9111968C91CD
:101480001197806C11968C93119730E040E022C048
:1014900011968C91119787FF09C08C916115710588
:1014A00021F0FB01E30FF11D80833F5F421790F4B1
:1014B000E42FF0E0832F90E002968E179F0754F000
:1014C00011968C91119785FF05C0EC0FFD1FE491DB
:1014D000EC934F5F3217E0F2DF91CF910895FC015A
:1014E000A081B18113968C911397837F13968C936F
:1014F00013974115510559F0A081B18113968C9134
:101500001397862B13968C931397468357830895CE
:10151000FB01009709F47EC0309709F47BC0408B33
:10152000218B8083918329E0803B920709F443C09B
:1015300029E0813B920770F428E0803B920729F173
:1015400029E0803A920761F128E0803A920709F099
:1015500061C010C02AE0803B920709F442C02BE032
:10156000803A920709F44AC02AE0803A920709F0CB
:1015700051C02CC06093DE217093DF2188E295E09A
:101580008283938381E395E036C06093E02170937A
:10159000E1218AE395E08283938383E495E02BC085
:1015A0006093E2217093E3218CE495E0828393833E
:1015B00085E595E020C06093E4217093E5218EE5F8
:1015C00095E08283938387E695E015C06093E621DA
:1015D0007093E72180E795E08283938389E795E024
:1015E0000AC06093E8217093E92182E895E0828344
:1015F00093838BE895E08483958308956093EA2133
:101600007093EB2184E995E0828393838DE995E0E3
:10161000848395830895AF92BF92CF92DF92FF9219
:101620000F931F93CF93DF93EC015B016A01F22EBE
:10163000009779F16115710561F14115510549F185
:10164000EC81FD8180E090E01995882311F1EA8119
:10165000FB8180E090E019958823D9F0A886B986AF
:10166000FA86FB86CC86DD86FE86FF86011511058F
:1016700029F06C817D81C8010E94D201E881F98145
:101680008181806C8183E881F98189899889892B9E
:101690008383DF91CF911F910F91FF90DF90CF90C7
:1016A000BF90AF900895CF92DF92EF92FF920F9389
:1016B0001F93CF93DF930F92CDB7DEB78C016B01F1
:1016C0007901009779F16115710561F1DC011296DC
:1016D000ED91FC91139780E090E049831995498141
:1016E000882301F1F801C086D18642874387E1143F
:1016F000F10429F062817381C7010E94D2019FB772
:10170000F894D801ED91FC911197838151962C9119
:101710005197822B8383ED91FC9111978181806495
:1017200081839FBF0F90DF91CF911F910F91FF9009
:10173000EF90DF90CF900895CF92DF92EF92FF92DB
:101740000F931F93CF93DF930F92CDB7DEB78C012A
:101750006B017901009779F16115710561F1DC0187
:101760001496ED91FC91159780E090E049831995CE
:101770004981882301F1F801C486D58646874787C9
:10178000E114F10429F064817581C7010E94D2013E
:101790009FB7F894D801ED91FC91119783815096F1
:1017A0002C915097822B8383ED91FC91119781812D
:1017B000806881839FBF0F90DF91CF911F910F9120
:1017C000FF90EF90DF90CF900895FC01009791F08B
:1017D0006115710579F09FB7F89487852685821B7E
:1017E000DB018C9316860190F081E02D83818F7C44
:1017F00083839FBF08956F927F928F929F92AF9243
:10180000BF92CF92EF920F931F93CF93DF935C0120
:10181000EB013A014901009709F4D8C0209709F477
:10182000D5C08883998380EBA81689E0B806D9F1E2
:1018300081EBA81689E0B80688F480EBA81688E04A
:10184000B80619F180EAA81689E0B80629F180EAFD
:10185000A81688E0B80609F042C010C080EBA816B0
:101860008AE0B80671F180EAA8168BE0B80681F12B
:1018700080EAA8168AE0B80691F51CC06093DE21C4
:101880007093DF211BE43CE42CC06093E021709353
:10189000E1211EE43FE425C06093E2217093E3213F
:1018A0001BE63CE61EC06093E4217093E5211EE632
:1018B0003FE617C06093E6217093E7211BE83CE800
:1018C00010C06093E8217093E9211EE83FE809C049
:1018D0006093EA217093EB211BEA3CEA02C010E01E
:1018E00030E061147104A9F1C30160E040E021E03F
:1018F00000E0EE24C32E0E947404C301B5010E94CF
:10190000D20480E2681681E07806C9F081E26816A8
:1019100081E0780630F480E1681681E07806C9F449
:101920000BC080E3681681E0780661F080E46816F9
:1019300081E0780671F409C081EC95E008C088EB7D
:1019400095E005C08FEA95E002C086EA95E08A83BB
:101950009B8381149104B1F1C40160E040E020E078
:1019600000E0EE24E394C12E0E947404C401B5018A
:101970000E94CA0480E2881681E09806C9F081E2DC
:10198000881681E0980630F480E1881681E0980698
:10199000C9F40BC080E3881681E0980661F080E40A
:1019A000881681E0980671F409C081EC95E008C0C2
:1019B00088EB95E005C08FEA95E002C086EA95E0E5
:1019C0008C839D83688679868A869B86DF91CF91FA
:1019D0001F910F91EF90CF90BF90AF909F908F90FD
:1019E0007F906F900895AF92BF92CF92DF92FF9257
:1019F0000F931F93CF93DF93EC016B015A01F22EEB
:101A00000097D1F161157105B9F141155105A1F1A9
:101A1000EC81FD8180E090E01995882369F1EA81ED
:101A2000FB8180E090E01995882331F188859985C4
:101A3000B6010E94CA04888599856F2D70E00E94C6
:101A4000DA048A859B85B5010E94D2048A859B852C
:101A50006F2D70E00E94DA040115110529F06C81E8
:101A60007D81C8010E94D2018A859B850E94E8047D
:101A7000888599850E94E804DF91CF911F910F918D
:101A8000FF90DF90CF90BF90AF900895DF92EF92DC
:101A9000FF920F931F93CF93DF938C01EB01D42E12
:101AA0007901009759F1209749F1DC011296ED91E7
:101AB000FC91139780E090E019958823F9F0F801E4
:101AC00080859185BE010E94CA04D80118968D9127
:101AD0009C9119976D2D70E00E94DA04E114F104D5
:101AE00031F0F80162817381C7010E94D201D801EF
:101AF00018968D919C9119970E94E804DF91CF91DF
:101B00001F910F91FF90EF90DF900895DF92EF9279
:101B1000FF920F931F93CF93DF938C01EB01D42E91
:101B20007901009759F1209749F1DC011496ED9164
:101B3000FC91159780E090E019958823F9F0F80161
:101B400082859385BE010E94D204D8011A968D9198
:101B50009C911B976D2D70E00E94DA04E114F10452
:101B600031F0F80164817581C7010E94D201D8016A
:101B70001A968D919C911B970E94E804DF91CF915A
:101B80001F910F91FF90EF90DF90089581E0E0E2C8
:101B9000F6E08783089500D00F9280910020909105
:101BA0000120EDB7FEB78183928384E092E08383C6
:101BB00094830E94190E0F900F900F900F9008952C
:101BC00081E0E0E2F6E0818388E0E0E6F6E0818310
:101BD00081E00E942C0381E00E9487038091A20093
:101BE0008260E0EAF0E08283789487E062E04CE78C
:101BF00050E00E94D70280E060E00E9464040E94EE
:101C0000680480EA99E060E04FEC20E00E9409055A
:101C100086EC9DE06AEF70E00E944F018BEC9DE046
:101C200068EE73E00E944F018CEE91E20E94F40195
:101C3000FBCF0F931F93CF93DF93CDB7DEB708850C
:101C40001985AE01445F5F4FF8018381886083830B
:101C5000C8016A857B850E945E0EF8012381277F7B
:101C60002383DF91CF911F910F910895EF92FF92FF
:101C70000F931F93CF93DF937C01EB018B8181FF47
:101C800013C000E010E00BC0E885F985BE0119958E
:101C9000009711F00FEF1FEF0894E11CF11CF70102
:101CA0008491882389F702C00FEF1FEFC801DF91ED
:101CB000CF911F910F91FF90EF9008952F923F9237
:101CC0004F925F926F927F928F929F92AF92BF924C
:101CD000CF92DF92EF92FF920F931F93CF93DF93F8
:101CE000CDB7DEB72D97CDBFDEBF3C016C877D87BA
:101CF0005A01FC0116821782838181FFC8C12E011F
:101D00000894411C511CF3019381EC85FD8593FDE2
:101D1000859193FF8191EC87FD87882309F4B3C1F6
:101D2000853241F493FD859193FF8191EC87FD8786
:101D3000853229F490E0B3010E947510E4CFFF24AE
:101D4000EE2410E01032B0F48B3269F08C3228F4BB
:101D5000803251F0833271F40BC08D3239F0803310
:101D600049F411602CC01260146029C0186027C0AB
:101D7000106125C017FD2EC0282F20532A3098F45B
:101D800016FF08C08F2D880FF82EFF0CFF0CF80EE1
:101D9000F20E15C08E2D880FE82EEE0CEE0CE80E1C
:101DA000E20E10620CC08E3221F416FD6CC110647C
:101DB00006C08C3611F4106802C0883659F4EC85E0
:101DC000FD8593FD859193FF8191EC87FD878823A5
:101DD00009F0B8CF982F9554933018F09052933063
:101DE00038F424E030E0A20EB31E3FE339830FC085
:101DF000833631F0833781F0833509F05AC022C031
:101E0000F5018081898322E030E0A20EB31E21E03B
:101E1000C22ED12C420114C092E0292E312C2A0C62
:101E20003B1CF5018080918016FF03C06F2D70E090
:101E300002C06FEF7FEFC4010E946A106C01510174
:101E40001F7715C082E0282E312C2A0C3B1CF5018F
:101E50008080918016FF03C06F2D70E002C06FEF8D
:101E60007FEFC4010E945F106C011068510113FDE7
:101E70001CC006C080E290E0B3010E947510EA9495
:101E80008E2D90E0C816D906A8F30FC0F40117FDF7
:101E9000859117FF81914F0190E0B3010E94751069
:101EA000E110EA940894C108D108C114D10471F773
:101EB000E7C0843611F0893651F5F50117FF07C0E8
:101EC00080819181A281B38124E030E008C08081CB
:101ED0009181AA2797FDA095BA2F22E030E0A20EAB
:101EE000B31E012F0F76B7FF08C0B095A09590954F
:101EF00081959F4FAF4FBF4F0068BC01CD01A2013C
:101F00002AE030E00E94A110D82ED4183FC08537B7
:101F100021F41F7E2AE030E020C0197F8F36A9F01F
:101F2000803720F4883509F0AEC00BC0803721F02F
:101F3000883709F0A8C001C0106114FF09C01460FF
:101F400007C014FF08C0166006C028E030E005C0D6
:101F500020E130E002C020E132E0F50117FF07C0C8
:101F6000608171818281938144E050E006C060818C
:101F7000718180E090E042E050E0A40EB51EA20125
:101F80000E94A110D82ED418012F0F7706FF09C088
:101F90000E7FDF1430F404FF06C002FD04C00F7E84
:101FA00002C01D2D01C01F2D802F90E004FF0CC02A
:101FB000FE01ED0DF11D2081203311F4097E09C0D1
:101FC00002FF06C01E5F05C086789070009709F07A
:101FD0001F5F802E992403FD12C000FF0DC0FD2C51
:101FE0001E1550F4FE0CF11A1E2D06C080E290E082
:101FF000B3010E9475101F5F1E15C0F304C01E15AB
:1020000010F4E11A01C0EE2484FE0FC080E390E0DA
:10201000B3010E94751082FE1FC081FE03C088E5D7
:1020200090E010C088E790E00DC0C4018678907001
:10203000009791F081FC02C080E201C08BE207FDB5
:102040008DE290E0B3010E94751006C080E390E03D
:10205000B3010E947510FA94DF14C0F3DA94F20110
:10206000ED0DF11D808190E0B3010E947510DD201F
:10207000A9F706C080E290E0B3010E947510EA94CF
:10208000EE20C1F740CEF3018681978102C08FEF29
:102090009FEF2D96CDBFDEBFDF91CF911F910F91A6
:1020A000FF90EF90DF90CF90BF90AF909F908F9078
:1020B0007F906F905F904F903F902F900895FC011C
:1020C0000590615070400110D8F7809590958E0F63
:1020D0009F1F0895FC016150704001900110D8F7D6
:1020E000809590958E0F9F1F08950F931F93CF9308
:1020F000DF938C01EB018B8181FF1BC082FF0DC040
:102100002E813F818C819D812817390764F4E881F5
:10211000F9810193E883F98306C0E885F985802F6A
:102120001995009731F48E819F8101968E839F834C
:1021300002C00FEF1FEFC801DF91CF911F910F91E8
:102140000895FA01AA27283051F1203181F1E8944D
:102150006F936E7F6E5F7F4F8F4F9F4FAF4FB1E09A
:102160003ED0B4E03CD0670F781F891F9A1FA11D95
:10217000680F791F8A1F911DA11D6A0F711D811D96
:10218000911DA11D20D009F468943F912AE0269F5B
:1021900011243019305D3193DEF6CF010895462FBA
:1021A0004770405D4193B3E00FD0C9F7F6CF462F9B
:1021B0004F70405D4A3318F0495D31FD4052419304
:1021C00002D0A9F7EACFB4E0A695979587957795C1
:1021D0006795BA95C9F700976105710508959B0148
:1021E000AC010A2E06945795479537952795BA95D1
:1021F000C9F7620F731F841F951FA01D0895F894DF
:02220000FFCF0E
:02220200D021E9
:00000001FF
