:100000000C9464020C9486020C9486020C94860272
:100010000C9486020C9486020C94960A0C94C60AE0
:100020000C94F60A0C94260B0C9495090C948602F9
:100030000C9486020C9486020C947B090C94860224
:100040000C9486020C9486020C9486020C94860210
:100050000C9486020C9486020C9486020C94860200
:100060000C9486020C94280D0C94FC0C0C94540DEA
:100070000C94AE0D0C94820D0C94DA0D0C94860247
:100080000C9486020C9486020C9486020C948602D0
:100090000C9486020C9486020C9486020C948602C0
:1000A0000C9486020C9486020C9486020C948602B0
:1000B0000C9486020C9486020C9486020C948602A0
:1000C0000C9486020C9486020C9486020C94860290
:1000D0000C9486020C9486020C9486020C94860280
:1000E0000C9486020C9486020C94400F0C94140F0E
:1000F0000C946C0F0C94C60F0C949A0F0C94F20F86
:100100000C9486020C9486020C9486020C9486024F
:100110000C9486020C9486020C9486020C9486023F
:100120000C9486020C9486020C9486020C9486022F
:100130000C9486020C9486020C9486020C9486021F
:100140000C9486020C9486020C9486020C9486020F
:100150000C9486020C9486020C9486020C948602FF
:100160000C94340E0C94080E0C94600E0C94BA0E81
:100170000C948E0E0C94E60E0C9486020C9486025F
:100180000C9486020C9486020C9486020C948602CF
:100190000C9486020C9486020C9486020C948602BF
:1001A0000C9486020C9486020C9486020C948602AF
:1001B0000C9486020C9486020C9486020C9486029F
:1001C0000C9486020C9486020C9486020C9486028F
:1001D0000C9486020C9486020C9486020C944C10AB
:1001E0000C9420100C9478106164647265737352DF
:1001F000656164436D6428292077697468204E55D1
:100200004C4C206465636F64652066756E63746929
:100210006F6E2E0D0A0061646472657373526561BE
:1002200064436D642829207769746820696E76615B
:100230006C696420363830342D3220616464726514
:1002400073733A2025750D0A0061646472657373D7
:1002500052656164436D6428292077697468204E73
:10026000554C4C20646174615F7320706172616DE4
:10027000657465722E0D0A0061646472657373574C
:1002800072697465436D6428292077697468204E0B
:10029000554C4C20656E636F64652066756E6374A3
:1002A000696F6E2E0D0A0061646472657373577214
:1002B000697465436D6428292077697468204E55F8
:1002C0004C4C20646174615F7320706172616D6574
:1002D0007465722E0D0A00616464726573735772DF
:1002E000697465436D642829207769746820696E94
:1002F00076616C696420363830342D322061646454
:10030000726573733A2025750D0A006C7463363874
:1003100030345F7265616443656C6C566F6C7461F8
:10032000676547726F757028293A2063616E6E6F3A
:100330007420726561642066726F6D2067726F75DC
:10034000702025632E0D0A0073656E64436D64286A
:1003500029207769746820696E76616C696420363B
:100360003830342D3220616464726573733A2575B8
:100370000D0A00616C6C6F635461736B3A204F75AA
:1003800074206F66206D656D6F72792E0D0A0049BD
:1003900043204164647265737320307825583A0DA8
:1003A0000A00562063656C6C3A200025662C2000FC
:1003B000504543206F6B0D0A005045432065727213
:1003C0006F720D0A006E616E00696E660000407A01
:1003D00010F35A00A0724E18090010A5D4E80000CE
:1003E000E87648170000E40B54020000CA9A3B006C
:1003F0000000E1F505000080969800000040420FE3
:10040000000000A08601000000102700000000E8A6
:1004100003000000006400000000000A000000006B
:10042000000100000000002C76D888DC674F08230C
:10043000DFC1DFAE59E1B1B796E5E3E453C63AE672
:1004400051997696E8E6C28426EB898C9B62ED4052
:100450007C6FFCEFBC9C9F40F2BAA56FA5F49005A1
:100460005A2AF75C936B6CF9676DC11BFCE0E40DD5
:1004700047FEF520E6B500D0ED902E0300943577C9
:10048000050080841E080000204E0A000000C80CF1
:10049000333333330F986E12831141EF8D2114895A
:1004A0003BE65516CFFEE6DB18D1844B381BF77CB4
:1004B0001D901DA4BBE424203284725E228100C9F9
:1004C000F124ECA1E53D270011241FBECFEFDFE3AF
:1004D000DEBFCDBF00E00CBF10E2A0E0B0E2E4E27E
:1004E000FAE300E00BBF02C007900D92AA30B107FB
:1004F000D9F71BBE14E2AAE0B0E201C01D92A531FB
:10050000B107E1F70E9485150C94101D0C940000B2
:100510001F93CF93DF938031E8F000D000D0EDB788
:10052000FEB731962091082030910920ADB7BEB7B3
:1005300011962D933C93129728E433E02283338362
:10054000848315820E94411C8DB79EB706968DBF8D
:100550009EBF12C044E054E20E947F06C0E8D6E08D
:1005600010E11E8380EB9AE064E074E244EF53E212
:1005700024E00E94EC101D83DF91CF911F9108951C
:10058000AF92BF92CF92DF92EF92FF921F93CF93E1
:10059000DF935A0169014115510599F400D00F927A
:1005A0008091082090910920ADB7BEB711968D9328
:1005B0009C93129788EE91E013968D939C931497D9
:1005C00011C021153105A9F400D00F9280910820A7
:1005D00090910920EDB7FEB78183928389E492E080
:1005E000838394830E94411C0F900F900F900F9073
:1005F0003DC08031E8F000D000D0EDB7FEB73196B5
:100600002091082030910920ADB7BEB711962D93E7
:100610003C93129726E132E0228333838483158250
:100620000E94411CEDB7FEB73696EDBFFEBF1EC05F
:1006300094E0E92E94E2F92E9CE0D7011D929A9560
:10064000E9F7A7010E947F06C0E8D6E010E11E830B
:1006500080EB9AE0B70144EF53E22CE00E94EC10EB
:100660001D83C60168EF73E2F5011995DF91CF9103
:100670001F91FF90EF90DF90CF90BF90AF900895C3
:10068000DF92EF92FF920F931F93CF93DF93CDB73B
:10069000DEB7EDB6FEB60F924DB75EB74F5F5F4F58
:1006A000EDB7FEB7118200E816E020E1D22EF80186
:1006B000D68280EB9AE0BA0121E00E94EC10F801AA
:1006C000D582EDBEFEBEDF91CF911F910F91FF90BD
:1006D000EF90DF9008950F93282F062F80EB9AE07C
:1006E00060E042E00E94A6100E94C9050F910895A3
:1006F0000F931F93CF93DF930F92CDB7DEB78B018C
:1007000089830E94400391E0F8019683898160E12A
:1007100070E047E956E098010E94C0020F90DF9117
:10072000CF911F910F9108950F931F93CF93DF9354
:100730000F92CDB7DEB78B0189830E94400391E011
:10074000F801918B898162E170E042EC56E09801FA
:100750000E94C0020F90DF91CF911F910F910895D9
:100760000F931F93CF93DF930F92CDB7DEB78B011B
:1007700089830E94400391E0F8019387898162E0B8
:1007800070E042E157E098010E94C0020F90DF91B3
:10079000CF911F910F910895EF92FF920F931F93A6
:1007A000CF93DF930F92CDB7DEB78B0189830E9481
:1007B000400391E0D8011B969C931B9789810115FA
:1007C0001105A9F400D00F92809108209091092082
:1007D000EDB7FEB78183928387EA92E083839483A7
:1007E0000E94411C0F900F900F900F903DC08031E0
:1007F000E8F000D000D0EDB7FEB731962091082088
:1008000030910920ADB7BEB711962D933C93129746
:1008100027ED32E022833383848315820E94411CBA
:10082000EDB7FEB73696EDBFFEBF1EC061E070E0CB
:1008300044E054E20E947F0688E094E2B8010E94FE
:10084000610730E8E32E36E0F32E10E1D70116966B
:100850001C9380EB9AE064E074E244EF53E22CE0F6
:100860000E94EC10F70115830F90DF91CF911F913B
:100870000F91FF90EF9008950F931F93CF93DF9305
:100880000F920F92CDB7DEB78A016A8389830E94E7
:1008900040036A818981623481F1633418F46134E0
:1008A00061F428C0633419F0643439F403C068E09B
:1008B00070E025C06AE070E022C000D000D0EDB743
:1008C000FEB731968091082090910920ADB7BEB750
:1008D00011968D939C9312978BE093E08283938380
:1008E000648315820E94411CEDB7FEB73696EDBFBA
:1008F000FEBF0EC064E070E002C066E070E091E010
:10090000D80116969C934FE957E098010E94C002C7
:100910000F900F90DF91CF911F910F9108958F92BB
:100920009F92AF92BF92CF92DF92EF92FF920F937E
:100930001F93CF93DF93CDB7DEB72F97CDBFDEBF29
:10094000A82E7B010E944003DE011896E0E0F0E251
:1009500088E001900D928150E1F781E0F701808FEE
:1009600048E0C42ED12CCC0EDD1E870158E1852E27
:10097000912C8E0C9F1CBB24B394BF82F601619115
:1009800071916F018A2D4FE957E09E012F5F3F4F14
:100990000E94C00289819A81F801808391838B81B2
:1009A0009C81828393838D819E8184839583F701CB
:1009B000808D9F818923808F0A5F1F4F081519053D
:1009C000E1F62F96CDBFDEBFDF91CF911F910F9142
:1009D000FF90EF90DF90CF90BF90AF909F908F905F
:1009E00008950F931F93CF93DF930F92CDB7DEB788
:1009F0008B0189830E94400391E0F80196838981ED
:100A00006CE070E04AEC57E098010E94C0020F9041
:100A1000DF91CF911F910F9108950F931F93CF9363
:100A2000DF930F92CDB7DEB78B0189830E9440031D
:100A300091E0F801968389816EE070E045EF57E020
:100A400098010E94C0020F90DF91CF911F910F91EA
:100A500008950F931F93CF93DF930F920F92CDB70B
:100A6000DEB78B014A8389830E944003B801606628
:100A700072604A8150E0642B752B89810E94880244
:100A80000F900F90DF91CF911F910F9108950F93C9
:100A90001F93CF93DF930F920F92CDB7DEB78B01E9
:100AA0004A8389830E944003B801606674604A816A
:100AB00050E0642B752B89810E9488020F900F9063
:100AC000DF91CF911F910F9108950F931F93CF93B3
:100AD000DF930F920F92CDB7DEB78B014A838983E4
:100AE0000E944003B801686674604A8150E0642B3C
:100AF000752B89810E9488020F900F90DF91CF9112
:100B00001F910F910895CF93DF930F92CDB7DEB76A
:100B100089830E944003898165E177E00E94880211
:100B20000F90DF91CF9108951F93CF93DF93182FEC
:100B3000EB010E9440038FE99FE00197F1F700C0AD
:100B40000000812F0E9483058FE39CE90197F1F754
:100B500000C00000812FBE010E94CC03DF91CF9125
:100B60001F9108950F931F93CF93DF930F92CDB7EB
:100B7000DEB78B0189830E944003B8016F66746001
:100B800089810E9488020F90DF91CF911F910F9170
:100B90000895EAE0F0E240E050E0A9E9B5E49A0106
:100BA0003695322F22273795279568E070E0C901E6
:100BB000880F991F36FF04C09C012A273B2701C0DC
:100BC0009C016150704099F7219331934F5F5F4FC3
:100BD00081E04030580719F70895DC0120E030E04B
:100BE00080E190E016C0ED91582F4427F0E0880F87
:100BF000892F881F990B9195E827F927F070EE0F40
:100C0000FF1FE65FFF4D80819181842795272F5F2D
:100C10003F4F261737073CF3880F991F0895CF934E
:100C2000DF93EC0166E070E00E94ED053E8120E07C
:100C30004F8150E0422B532B21E08417950709F098
:100C400020E0822FDF91CF910895BC0180E090E0F9
:100C50000E94621A27E137EB41ED58E30E94F01A37
:100C600020E030E040EA51E40E94F01A462F572F6E
:100C7000682F792FCB01BA010895BC0180E090E084
:100C80000E94621A27E137EB41ED58E30E94F01A07
:100C90002FE832EC45EF5BE30E94FA1920E030E8E0
:100CA00048E853E40E949519462F572F682F792F53
:100CB000CB01BA010895BC0180E090E00E94621A65
:100CC00027E137EB41ED58E30E94F01A462F572FEA
:100CD000682F792FCB01BA010895BC0180E090E024
:100CE0000E94621A27E137EB41ED58E30E94F01AA7
:100CF000462F572F682F792FCB01BA010895CF9334
:100D0000DF93EA01209781F077708F70880F880F4A
:100D1000880F8068872B88836983CA0162E070E04E
:100D20000E94ED059A838B83DF91CF9108950F93F5
:100D30001F93CF93DF938C01EB01CB010E940F0631
:100D4000882311F4F8011682398120E0888190E02F
:100D5000822B932BF801808391833B8120E08A8151
:100D600090E0822B932B828393839D8180E02C8162
:100D700030E0282B392B24833583DF91CF911F91CD
:100D80000F910895EF92FF920F931F93CF93DF93EC
:100D90008C01EB01CB010E940F06882321F4D801BE
:100DA00051961C925197398120E0888190E0822BE6
:100DB000932BF8018193919320E030E019C0DB017F
:100DC00012968C9190E0042E02C0959587950A9416
:100DD000E2F78370D7018D937D014E5F5F4F4830FE
:100DE000510569F734962F5F3F4F2330310539F0B5
:100DF0007F0140E050E0BE01620F731FE0CF8D81A4
:100E000082958F70F80186878D818695817087879E
:100E10008D818170808BDF91CF911F910F91FF9019
:100E2000EF9008950F931F93CF93DF938C01EB0105
:100E3000CB010E940F06882311F4F80113868881E4
:100E4000869586958695F801808388818695869516
:100E50008170818388818695817082838881817089
:100E600083838A8190E08F709070982F88272981E2
:100E700030E0822B932B848395838B8190E044E038
:100E8000880F991F4A95E1F72A8122952F7030E04B
:100E9000822B932B868397838D8190E08F70907047
:100EA000982F88272C8130E0822B932B8087918785
:100EB0008D8182958F708287DF91CF911F910F91E5
:100EC0000895CF93DF93EC01FB012081220F220FC5
:100ED000220F83818170282B818190E08170907036
:100EE000880F991F880F991F282B828190E08170AD
:100EF0009070880F991F282B28838481898386818D
:100F00008295807F9581892B8A838681978124E0D1
:100F1000969587952A95E1F78B8380858C838285CA
:100F20008295807F9185892B8D83CE0166E070E06C
:100F30000E94ED059E838F83DF91CF9108950F93DB
:100F40001F93CF93DF938C01EB01CB010E940F061F
:100F5000882311F4F8011682398120E0888190E01D
:100F6000822B932BF801808391833B8120E08A813F
:100F700090E0822B932B828393839D8180E02C8150
:100F800030E0282B392B24833583DF91CF911F91BB
:100F90000F9108950F931F93CF93DF938C01EB0173
:100FA000CB010E940F06882311F4F80116823981C3
:100FB00020E0888190E0822B932BF801808391833D
:100FC0003B8120E08A8190E0822B932B8283938364
:100FD0009D8180E02C8130E0282B392B24833583C0
:100FE000DF91CF911F910F9108950F931F93CF938E
:100FF000DF938C01EB01CB010E940F06882311F4D3
:10100000F8011682398120E0888190E0822B932BB1
:10101000F801808391833B8120E08A8190E0822BDC
:10102000932B828393839D8180E02C8130E0282B59
:10103000392B24833583DF91CF911F910F91089530
:10104000ECE0F2E220E08081882361F430E0C90125
:1010500043E0880F991F4A95E1F7821B930B865F47
:101060009D4D08952F5F3796203469F760910820D1
:101070007091092083E793E00E948A1C80E090E051
:101080000895EF92FF920F931F93CF93DF93EC019C
:101090007B010E9420088C01009799F0FC012097A9
:1010A00021F4128200E010E00CC0C083D18381E003
:1010B0008283C8010396B7010E94090AF801E582FC
:1010C000F682C801DF91CF911F910F91FF90EF90B1
:1010D0000895EF92FF920F931F93CF93DF93EC014C
:1010E0007B010E9420088C01009799F0FC01209759
:1010F00021F4128200E010E00CC0C083D18381E0B3
:101100008283C8010396B7010E94090AF80115827B
:101110001682C801DF91CF911F910F91FF90EF9040
:101120000895CF93DF93EC010E942008FC01009703
:1011300051F0209721F41282E0E0F0E004C0C08377
:10114000D18382E08283CF01DF91CF9108950F9305
:101150001F93CF93DF93EC018B010E942008FC01C9
:10116000009761F0209721F41282E0E0F0E006C0E1
:10117000C083D18383E0828303831483CF01DF9113
:10118000CF911F910F9108950F931F93CF93DF93EA
:10119000EC018B010E942008FC01009761F0209770
:1011A00021F41282E0E0F0E006C0C083D18384E045
:1011B000828303831483CF01DF91CF911F910F911D
:1011C0000895009711F0FC0112820895EF92FF92AA
:1011D0000F931F93CF93DF938C017CE0E72E72E295
:1011E000F72EC0E0D0E0F7018081813069F5CE01B3
:1011F00063E0880F991F6A95E1F78C1B9D0B865F52
:101200009D4D8093CA239093CB2303960E94EC09B3
:101210008823D1F4E091CA23F091CB2365817681B4
:101220006115710549F0CF0103960E94D909E0913B
:10123000CA23F091CB2303C0309709F012820190AA
:10124000F081E02DC8011995219687E090E0E80E25
:10125000F91EC034D10539F6C0E0D0E0FE0153E0FC
:10126000EE0FFF1F5A95E1F7EC1BFD0BE65FFD4DFE
:10127000E093CA23F093CB238281833041F0843002
:10128000B9F0823061F5309769F012820BC00380AB
:10129000F481E02DC8011995882309F1E091CA2352
:1012A000F091CB230190F081E02DC801199517C072
:1012B0000380F481E02DC8011995882381F0E09125
:1012C000CA23F091CB230190F081E02DC80119953C
:1012D000E091CA23F091CB23309709F01282219636
:1012E000C034D10509F0BACFDF91CF911F910F9192
:1012F000FF90EF9008951F920F920FB60F92112456
:101300008F939F938091CC239091CD2301968093CE
:10131000CC239093CD2381E0809314249F918F91CF
:101320000F900FBE0F901F9018951F920F920FB63F
:101330000F9211248F939F938091CC239091CD2372
:1013400001968093CC239093CD2381E08093142445
:101350009F918F910F900FBE0F901F901895E0E412
:10136000F0E06383E0E0F4E0428322873387808308
:1013700008951092CC231092CD23E0E4F0E0838115
:10138000816083830895E0E4F0E083818E7F83832E
:10139000089510921424E0E0F8E011826683178229
:1013A00010A211A246A357A38083089510920008AB
:1013B0000895FC01009739F07F7780819181860F35
:1013C000971F8083918308952FB7F8948091CC2341
:1013D0009091CD232FBF0895CF93DF93EC01009719
:1013E000A1F00E94E40928813981BC01622773279A
:1013F000AC015F773F7781E077FD04C04217530768
:1014000028F003C04217530708F480E0DF91CF9122
:1014100008950F931F93CF93DF938C01EB010097F7
:1014200041F00E94E409DF77C80FD91FF801C0839B
:10143000D183DF91CF911F910F910895E0E5F0E006
:10144000908121E030E002C0220F331F8A95E2F73D
:10145000922B90830895E0E5F0E0908121E030E068
:1014600002C0220F331F8A95E2F72095292320839B
:101470000895682BE0E5F0E0628308956F71682BB2
:10148000E0E5F0E065830895E0E4F0E09181937099
:10149000982B88ED84BF91830895E0E5F0E08823E0
:1014A00011F4168209C082E0828380915000886026
:1014B0008093500083E0868380914000813029F042
:1014C000813050F0843079F403C080936000089537
:1014D00080915500807C21F481E08093680008951C
:1014E00081E080936000089510926800109260007F
:1014F0000895CF93DF930F92CDB7DEB789830E9413
:10150000740A21E030E08981082E02C0220F331FC7
:101510000A94E2F7909151009223E1F398ED94BF81
:10152000809340000F90DF91CF9108951F920F920A
:101530000FB60F920BB60F9211242F933F934F9338
:101540005F936F937F938F939F93AF93BF93EF932B
:10155000FF93E091D423F091D5231995E0E0F1E0D9
:1015600081898061818BFF91EF91BF91AF919F91B4
:101570008F917F916F915F914F913F912F910F903C
:101580000BBE0F900FBE0F901F9018951F920F92D9
:101590000FB60F920BB60F9211242F933F934F93D8
:1015A0005F936F937F938F939F93AF93BF93EF93CB
:1015B000FF93E091D223F091D3231995E0E0F1E07D
:1015C00081A1806181A3FF91EF91BF91AF919F9124
:1015D0008F917F916F915F914F913F912F910F90DC
:1015E0000BBE0F900FBE0F901F9018951F920F9279
:1015F0000FB60F920BB60F9211242F933F934F9378
:101600005F936F937F938F939F93AF93BF93EF936A
:10161000FF93E091D023F091D1231995E0E0F1E020
:1016200081A9806181ABFF91EF91BF91AF919F91B3
:101630008F917F916F915F914F913F912F910F907B
:101640000BBE0F900FBE0F901F9018951F920F9218
:101650000FB60F920BB60F9211242F933F934F9317
:101660005F936F937F938F939F93AF93BF93EF930A
:10167000FF93E091CE23F091CF231995E1E4F1E0BF
:10168000808180618083FF91EF91BF91AF919F91A5
:101690008F917F916F915F914F913F912F910F901B
:1016A0000BBE0F900FBE0F901F901895682B609384
:1016B00000010895E0E0F1E0808180688083089572
:1016C000E0E0F1E080818F7780830895CF92EF9200
:1016D0000F93FC016460608380E381832295207F07
:1016E0002E294295440F440F407C422B000F000FDF
:1016F000042B0283C3821482158216820F91EF900D
:10170000CF900895FC0181818C7F81834115510523
:1017100019F08181862B818381E0E032F807B9F0EE
:1017200081E0E132F8072CF481E0E031F807E9F4D8
:1017300009C081E0E033F80779F081E0E034F80790
:10174000A1F40FC04093D4235093D5230895409320
:10175000D2235093D32308954093D0235093D12381
:1017600008954093CE235093CF230895FC016683C0
:101770008081806280830895FC018FB7F894608730
:10178000718712868FBF0895FC018FB7F894648724
:10179000758716868FBF08952FB7F894FC01648370
:1017A00075832FBF08952FB7F894FC01848195812C
:1017B0002FBF0895FC018081806880830895FC011B
:1017C00080818F7780830895FC01808180780895DF
:1017D000E091D623F091D723918195FFFDCF8083AF
:1017E00080E090E00895E091D623F091D7238083A4
:1017F00080E090E00895CF93C62F8093D6239093F6
:10180000D723642F422F0E94C410E0910820F0914A
:101810000920CC2319F488EE9BE002C083EF9BE003
:10182000808791871286138682E0838314861586CB
:10183000CF910895E091E623F091E723928581E02E
:10184000911180E00895E091E623F091E7239685D9
:1018500081E0911180E00895E091E823F091E9237F
:10186000928581E0911180E00895E091E823F09164
:10187000E923968581E0911180E00895E091EA23C3
:10188000F091EB23928581E0911180E00895E09141
:10189000EA23F091EB23968581E0911180E0089591
:1018A000E091EC23F091ED23928581E0911180E0AD
:1018B0000895E091EC23F091ED23968581E091115C
:1018C00080E00895E091EE23F091EF23928581E08E
:1018D000911180E00895E091EE23F091EF23968539
:1018E00081E0911180E00895E091F023F091F123DF
:1018F000928581E0911180E00895E091F023F091CC
:10190000F123968581E0911180E00895E091F22322
:10191000F091F323928581E0911180E00895E091A8
:10192000F223F091F323968581E0911180E00895F0
:1019300080E491E00E94E40B91E0811190E0892F16
:10194000089580E391E00E94E40B91E0811190E022
:10195000892F089580E291E00E94E40B91E08111CB
:1019600090E0892F089580E191E00E94E40B91E0DE
:10197000811190E0892F0895CF93DF93FC01828538
:10198000882371F0A081B181C085D18588818C9335
:101990008085918501968087918782858150828795
:1019A0008285882331F40190F081E02D83818C7F42
:1019B0008383DF91CF910895CF93DF93FC018685D8
:1019C000882371F0A485B585C081D18188818C93ED
:1019D000848595850196848795878685815086873D
:1019E0008685882331F40190F081E02D83818F7CFE
:1019F0008383DF91CF9108951F920F920FB60F92BC
:101A00000BB60F9211242F933F934F935F936F93D5
:101A10007F938F939F93AF93BF93EF93FF938091A7
:101A2000E6239091E7230E94BC0CFF91EF91BF91B8
:101A3000AF919F918F917F916F915F914F913F9166
:101A40002F910F900BBE0F900FBE0F901F90189507
:101A50001F920F920FB60F920BB60F9211242F9375
:101A60003F934F935F936F937F938F939F93AF9326
:101A7000BF93EF93FF938091E6239091E7230E9419
:101A8000DC0CFF91EF91BF91AF919F918F917F916E
:101A90006F915F914F913F912F910F900BBE0F90DF
:101AA0000FBE0F901F9018951F920F920FB60F92B6
:101AB0000BB60F9211242F933F934F935F936F9325
:101AC0007F938F939F93AF93BF93EF93FF93E09197
:101AD000E623F091E7230680F781E02D1995FF9129
:101AE000EF91BF91AF919F918F917F916F915F9196
:101AF0004F913F912F910F900BBE0F900FBE0F9003
:101B00001F9018951F920F920FB60F920BB60F925F
:101B100011242F933F934F935F936F937F938F93F2
:101B20009F93AF93BF93EF93FF938091E82390919E
:101B3000E9230E94BC0CFF91EF91BF91AF919F915F
:101B40008F917F916F915F914F913F912F910F9066
:101B50000BBE0F900FBE0F901F9018951F920F9203
:101B60000FB60F920BB60F9211242F933F934F9302
:101B70005F936F937F938F939F93AF93BF93EF93F5
:101B8000FF938091E8239091E9230E94DC0CFF9160
:101B9000EF91BF91AF919F918F917F916F915F91E5
:101BA0004F913F912F910F900BBE0F900FBE0F9052
:101BB0001F9018951F920F920FB60F920BB60F92AF
:101BC00011242F933F934F935F936F937F938F9342
:101BD0009F93AF93BF93EF93FF93E091E823F0912E
:101BE000E9230680F781E02D1995FF91EF91BF91D0
:101BF000AF919F918F917F916F915F914F913F91A5
:101C00002F910F900BBE0F900FBE0F901F90189545
:101C10001F920F920FB60F920BB60F9211242F93B3
:101C20003F934F935F936F937F938F939F93AF9364
:101C3000BF93EF93FF938091EA239091EB230E944F
:101C4000BC0CFF91EF91BF91AF919F918F917F91CC
:101C50006F915F914F913F912F910F900BBE0F901D
:101C60000FBE0F901F9018951F920F920FB60F92F4
:101C70000BB60F9211242F933F934F935F936F9363
:101C80007F938F939F93AF93BF93EF93FF93809135
:101C9000EA239091EB230E94DC0CFF91EF91BF911E
:101CA000AF919F918F917F916F915F914F913F91F4
:101CB0002F910F900BBE0F900FBE0F901F90189595
:101CC0001F920F920FB60F920BB60F9211242F9303
:101CD0003F934F935F936F937F938F939F93AF93B4
:101CE000BF93EF93FF93E091EA23F091EB230680FB
:101CF000F781E02D1995FF91EF91BF91AF919F91E1
:101D00008F917F916F915F914F913F912F910F90A4
:101D10000BBE0F900FBE0F901F9018951F920F9241
:101D20000FB60F920BB60F9211242F933F934F9340
:101D30005F936F937F938F939F93AF93BF93EF9333
:101D4000FF938091EC239091ED230E94BC0CFF91B6
:101D5000EF91BF91AF919F918F917F916F915F9123
:101D60004F913F912F910F900BBE0F900FBE0F9090
:101D70001F9018951F920F920FB60F920BB60F92ED
:101D800011242F933F934F935F936F937F938F9380
:101D90009F93AF93BF93EF93FF938091EC23909128
:101DA000ED230E94DC0CFF91EF91BF91AF919F91C9
:101DB0008F917F916F915F914F913F912F910F90F4
:101DC0000BBE0F900FBE0F901F9018951F920F9291
:101DD0000FB60F920BB60F9211242F933F934F9390
:101DE0005F936F937F938F939F93AF93BF93EF9383
:101DF000FF93E091EC23F091ED230680F781E02D35
:101E00001995FF91EF91BF91AF919F918F917F9124
:101E10006F915F914F913F912F910F900BBE0F905B
:101E20000FBE0F901F9018951F920F920FB60F9232
:101E30000BB60F9211242F933F934F935F936F93A1
:101E40007F938F939F93AF93BF93EF93FF93809173
:101E5000EE239091EF230E94BC0CFF91EF91BF9174
:101E6000AF919F918F917F916F915F914F913F9132
:101E70002F910F900BBE0F900FBE0F901F901895D3
:101E80001F920F920FB60F920BB60F9211242F9341
:101E90003F934F935F936F937F938F939F93AF93F2
:101EA000BF93EF93FF938091EE239091EF230E94D5
:101EB000DC0CFF91EF91BF91AF919F918F917F913A
:101EC0006F915F914F913F912F910F900BBE0F90AB
:101ED0000FBE0F901F9018951F920F920FB60F9282
:101EE0000BB60F9211242F933F934F935F936F93F1
:101EF0007F938F939F93AF93BF93EF93FF93E09163
:101F0000EE23F091EF230680F781E02D1995FF91E4
:101F1000EF91BF91AF919F918F917F916F915F9161
:101F20004F913F912F910F900BBE0F900FBE0F90CE
:101F30001F9018951F920F920FB60F920BB60F922B
:101F400011242F933F934F935F936F937F938F93BE
:101F50009F93AF93BF93EF93FF938091F023909162
:101F6000F1230E94BC0CFF91EF91BF91AF919F9123
:101F70008F917F916F915F914F913F912F910F9032
:101F80000BBE0F900FBE0F901F9018951F920F92CF
:101F90000FB60F920BB60F9211242F933F934F93CE
:101FA0005F936F937F938F939F93AF93BF93EF93C1
:101FB000FF938091F0239091F1230E94DC0CFF911C
:101FC000EF91BF91AF919F918F917F916F915F91B1
:101FD0004F913F912F910F900BBE0F900FBE0F901E
:101FE0001F9018951F920F920FB60F920BB60F927B
:101FF00011242F933F934F935F936F937F938F930E
:102000009F93AF93BF93EF93FF93E091F023F091F1
:10201000F1230680F781E02D1995FF91EF91BF9193
:10202000AF919F918F917F916F915F914F913F9170
:102030002F910F900BBE0F900FBE0F901F90189511
:102040001F920F920FB60F920BB60F9211242F937F
:102050003F934F935F936F937F938F939F93AF9330
:10206000BF93EF93FF938091F2239091F3230E940B
:10207000BC0CFF91EF91BF91AF919F918F917F9198
:102080006F915F914F913F912F910F900BBE0F90E9
:102090000FBE0F901F9018951F920F920FB60F92C0
:1020A0000BB60F9211242F933F934F935F936F932F
:1020B0007F938F939F93AF93BF93EF93FF93809101
:1020C000F2239091F3230E94DC0CFF91EF91BF91DA
:1020D000AF919F918F917F916F915F914F913F91C0
:1020E0002F910F900BBE0F900FBE0F901F90189561
:1020F0001F920F920FB60F920BB60F9211242F93CF
:102100003F934F935F936F937F938F939F93AF937F
:10211000BF93EF93FF93E091F223F091F3230680B6
:10212000F781E02D1995FF91EF91BF91AF919F91AC
:102130008F917F916F915F914F913F912F910F9070
:102140000BBE0F900FBE0F901F9018950F93FC01C0
:10215000606C642B65832683078388E184830F91F9
:1021600008950F93FC01606C642B658326830783BD
:1021700088E084830F910895FC0183E08583668362
:10218000478388E184830895FC0183E08583668327
:10219000478388E084830895FC0180818081808169
:1021A0000895FC018481886184838181806C8183AE
:1021B0008081808180810895FC018481886084838E
:1021C0008181806C81838081808180810895FC0180
:1021D0008481877E848308950F931F93CF93FC019E
:1021E0008B01BA018081808180818181806C8183B3
:1021F0002D3F08F02CEF30E0C0E024C0818187FF44
:1022000009C080816115710521F0DB01A30FB11DAB
:102210008C933F5FC217B0F44C2F50E0832F90E0B7
:1022200002968417950774F0818185FF0BC0011514
:10223000110529F0400F511FDA018C9101C080E097
:102240008083CF5F3217D0F2CF911F910F91089505
:10225000CF93DF93DC01EB01BA018C918C918C91CF
:1022600011968C911197806C11968C93119730E098
:1022700040E022C011968C91119787FF09C08C9184
:102280006115710521F0FB01E30FF11D80833F5FB4
:10229000421790F4E42FF0E0832F90E002968E171F
:1022A0009F0754F011968C91119785FF05C0EC0F94
:1022B000FD1FE491EC934F5F3217E0F2DF91CF9175
:1022C0000895FC01A081B18113968C911397837FAF
:1022D00013968C9313974115510559F0A081B18144
:1022E00013968C911397862B13968C931397468392
:1022F00057830895FB01009709F47EC0309709F4D5
:102300007BC0408B218B8083918329E0803B9207A7
:1023100009F443C029E0813B920770F428E0803B38
:10232000920729F129E0803A920761F128E0803A8A
:10233000920709F061C010C02AE0803B920709F4BF
:1023400042C02BE0803A920709F44AC02AE0803A62
:10235000920709F051C02CC06093E6237093E723E5
:102360008AE19CE08283938383E29CE036C06093A1
:10237000E8237093E9238CE29CE08283938385E3D6
:102380009CE02BC06093EA237093EB238EE39CE0E8
:102390008283938387E49CE020C06093EC23709356
:1023A000ED2380E59CE08283938389E59CE015C062
:1023B0006093EE237093EF2382E69CE08283938305
:1023C0008BE69CE00AC06093F0237093F12384E7CE
:1023D0009CE0828393838DE79CE0848395830895BA
:1023E0006093F2237093F32386E89CE082839383C7
:1023F0008FE89CE0848395830895AF92BF92CF923B
:10240000DF92FF920F931F93CF93DF93EC015B0159
:102410006A01F22E009779F16115710561F141159C
:10242000510549F1EC81FD8180E090E01995882308
:1024300011F1EA81FB8180E090E019958823D9F0C1
:10244000A886B986FA86FB86CC86DD86FE86FF8660
:102450000115110529F06C817D81C8010E94C40815
:10246000E881F9818181806C8183E881F9818989A2
:102470009889892B8383DF91CF911F910F91FF90D2
:10248000DF90CF90BF90AF900895CF92DF92EF9200
:10249000FF920F931F93CF93DF930F92CDB7DEB7C9
:1024A0008C016B017901009779F16115710561F17A
:1024B000DC011296ED91FC91139780E090E0498346
:1024C00019954981882301F1F801C086D186428798
:1024D0004387E114F10429F062817381C7010E94EE
:1024E000C4089FB7F894D801ED91FC9111978381AE
:1024F00051962C915197822B8383ED91FC911197EA
:102500008181806481839FBF0F90DF91CF911F9164
:102510000F91FF90EF90DF90CF900895CF92DF92D0
:10252000EF92FF920F931F93CF93DF930F92CDB74C
:10253000DEB78C016B017901009779F161157105A6
:1025400061F1DC011496ED91FC91159780E090E02B
:10255000498319954981882301F1F801C486D586FC
:1025600046874787E114F10429F064817581C7012A
:102570000E94C4089FB7F894D801ED91FC9111977F
:10258000838150962C915097822B8383ED91FC91FF
:1025900011978181806881839FBF0F90DF91CF91D8
:1025A0001F910F91FF90EF90DF90CF900895FC0165
:1025B000009791F06115710579F09FB7F8948785C0
:1025C0002685821BDB018C9316860190F081E02D1D
:1025D00083818F7C83839FBF08956F927F928F92B8
:1025E0009F92AF92BF92CF92EF920F931F93CF9390
:1025F000DF935C01EB013A014901009709F4D8C06F
:10260000209709F4D5C08883998380EBA81689E0C8
:10261000B806D9F181EBA81689E0B80688F480EBFA
:10262000A81688E0B80619F180EAA81689E0B8066D
:1026300029F180EAA81688E0B80609F042C010C067
:1026400080EBA8168AE0B80671F180EAA8168BE044
:10265000B80681F180EAA8168AE0B80691F51CC098
:102660006093E6237093E7231BE43CE42CC0609363
:10267000E8237093E9231EE43FE425C06093EA2336
:102680007093EB231BE63CE61EC06093EC23709333
:10269000ED231EE63FE617C06093EE237093EF2311
:1026A0001BE83CE810C06093F0237093F1231EE810
:1026B0003FE809C06093F2237093F3231BEA3CEADE
:1026C00002C010E030E061147104A9F1C30160E0C0
:1026D00040E021E000E0EE24C32E0E94660BC3011F
:1026E000B5010E94C40B80E2681681E07806C9F04B
:1026F00081E2681681E0780630F480E1681681E0B6
:102700007806C9F40BC080E3681681E0780661F0B2
:1027100080E4681681E0780671F409C083EB9CE0E0
:1027200008C08AEA9CE005C081EA9CE002C088E912
:102730009CE08A839B8381149104B1F1C40160E021
:1027400040E020E000E0EE24E394C12E0E94660BFE
:10275000C401B5010E94BC0B80E2881681E0980696
:10276000C9F081E2881681E0980630F480E188168D
:1027700081E09806C9F40BC080E3881681E09806D2
:1027800061F080E4881681E0980671F409C083EB5B
:102790009CE008C08AEA9CE005C081EA9CE002C097
:1027A00088E99CE08C839D83688679868A869B86EF
:1027B000DF91CF911F910F91EF90CF90BF90AF908D
:1027C0009F908F907F906F900895AF92BF92CF921D
:1027D000DF92FF920F931F93CF93DF93EC016B0176
:1027E0005A01F22E0097D1F161157105B9F1411529
:1027F0005105A1F1EC81FD8180E090E019958823DD
:1028000069F1EA81FB8180E090E01995882331F13C
:1028100088859985B6010E94BC0B888599856F2DA6
:1028200070E00E94CC0B8A859B85B5010E94C40B89
:102830008A859B856F2D70E00E94CC0B01151105D8
:1028400029F06C817D81C8010E94C4088A859B851E
:102850000E94DA0B888599850E94DA0BDF91CF916F
:102860001F910F91FF90DF90CF90BF90AF90089590
:10287000DF92EF92FF920F931F93CF93DF938C0120
:10288000EB01D42E7901009759F1209749F1DC0131
:102890001296ED91FC91139780E090E019958823B2
:1028A000F9F0F80180859185BE010E94BC0BD8012A
:1028B00018968D919C9119976D2D70E00E94CC0B0C
:1028C000E114F10431F0F80162817381C7010E94C3
:1028D000C408D80118968D919C9119970E94DA0B23
:1028E000DF91CF911F910F91FF90EF90DF900895AE
:1028F000DF92EF92FF920F931F93CF93DF938C01A0
:10290000EB01D42E7901009759F1209749F1DC01B0
:102910001496ED91FC91159780E090E0199588232D
:10292000F9F0F80182859385BE010E94C40BD8019D
:102930001A968D919C911B976D2D70E00E94CC0B87
:10294000E114F10431F0F80164817581C7010E943E
:10295000C408D8011A968D919C911B970E94DA0B9E
:10296000DF91CF911F910F91FF90EF90DF9008952D
:1029700081E0E0E2F6E087830895AF92BF92CF92C4
:10298000DF92EF92FF921F93CF93DF93CDB7DEB725
:10299000E997CDBFDEBF80E060E071E00E94B20544
:1029A0008FE79EE30197F1F700C0000080E060E050
:1029B00071E040E00E94650580E0BE016F5D7F4FE1
:1029C0000E948F0480E0BE016F5F7F4F0E94F10480
:1029D00080E0BE01685F7F4F0E94780380E0BE0107
:1029E000615F7F4F0E94940300D000D0EDB7FEB727
:1029F00031968091082090910920ADB7BEB711960D
:102A00008D939C9312978FE893E082839383148233
:102A100015820E94411C0F900F9080910820909188
:102A20000920EDB7FEB78183928382EA93E0838326
:102A300094830E94411C81E2E82EF12CEC0EFD1ED5
:102A40000F900F900F900F9010E09BEAA92E93E04B
:102A5000B92EC0900820D0900920D7018D919D916A
:102A60007D010E946D06DC01CB01EDB7FEB7389702
:102A7000EDBFFEBF2DB73EB72F5F3F4FC182D28261
:102A8000F901A282B38284839583A683B7830E94CF
:102A9000411C1F5F2DB73EB7285F3F4F2DBF3EBF84
:102AA0001C30B9F629AD8091082090910920213081
:102AB00079F400D00F92ADB7BEB711968D939C9369
:102AC000129780EB93E013968D939C9314970AC012
:102AD00000D00F92EDB7FEB78183928389EB93E02C
:102AE000838394830E94411C0F900F900F900F904E
:102AF000E996CDBFDEBFDF91CF911F91FF90EF90A0
:102B0000DF90CF90BF90AF900895CF93DF93CDB774
:102B1000DEB72C97CDBFDEBF11E0E0E2F6E0118317
:102B200088E0E0E6F6E08183E0E8F6E080EB818390
:102B3000809195068064858B81E00E941E0A81E069
:102B40000E94790A8091A2008260E0EAF0E082832C
:102B5000789487E062E04CE750E00E94C90980E089
:102B600060E00E94560B0E945A0B80EA99E060E0F8
:102B70004FEC20E00E94FB0B88EB94E16AEF70E0E1
:102B80000E9441088FE060E00E946B03BE016F5F0E
:102B90007F4F8CE0FB0111928A95E9F719831A8324
:102BA00082E597E08D839E8381E09AE08F8398870A
:102BB00080E00E9494058DEB94E16AEF70E00E9442
:102BC000410884EF93E20E94E608FBCF2F923F92E8
:102BD0004F925F926F927F928F929F92AF92BF922D
:102BE000CF92DF92EF92FF920F931F93CF93DF93D9
:102BF000CDB7DEB76597CDBFDEBF4C016E877F874F
:102C0000FC0116821782838181FD04C076C34C8546
:102C10005D8504C01E010894211C311CF4019381C0
:102C2000EE85FF8593FD859193FF8191EE87FF8768
:102C3000882309F45EC3853241F493FD859193FFA7
:102C40008191EE87FF87853259F490E0B4014C8B77
:102C50005D8B0E945E1C4C895D894C875D87D7CF58
:102C6000FF24DD2410E01032B0F48B3269F08C3296
:102C700028F4803251F0833271F40BC08D3239F078
:102C8000803349F411602CC01260146029C01860B0
:102C900027C0106125C017FD2EC0282F20532A30D1
:102CA00098F416FF08C08F2D880FF82EFF0CFF0C2C
:102CB000F80EF20E15C08D2D880FD82EDD0CDD0C10
:102CC000D80ED20E10620CC08E3221F416FD11C344
:102CD000106406C08C3611F4106802C0883659F4AE
:102CE000EE85FF8593FD859193FF8191EE87FF87A8
:102CF000882309F0B8CF982F9554933018F41061B9
:102D0000805E06C0982F9556933008F0A2C11F7EB2
:102D100016FD02C0E6E0FE2E1F73853611F4106426
:102D200006C0863611F4106802C0F110FA9417FF3D
:102D300007C0FBE3FF1548F0EF2CE39427E00DC03C
:102D400027E02F1530F02F2D07C027E07CE3E72E7A
:102D500004C027E067E0F62EEE24CA0104968C87B3
:102D60009D87FA016081718182819381A1010E2D7D
:102D70000E94531B5C01C9802C2D30E0288B398BBD
:102D8000C0FE03C0388933FF06C011FD06C012FF24
:102D900006C000E205C00DE203C00BE201C000E086
:102DA000888999898C709070009709F43CC0002341
:102DB00011F084E001C083E08D1558F4D81A13FD9A
:102DC00009C080E290E0B4010E945E1CDA94C9F769
:102DD00001C0DD24002329F0802F90E0B4010E947F
:102DE0005E1C888983FD05C039ECE32E33E0F32EA9
:102DF00011C025ECE22E23E0F22E0CC001151105C6
:102E000009F0805290E0B4010E945E1C0894E11C1D
:102E1000F11C04C0012F10E000711070F7018491C3
:102E2000882361F763C217FF0EC0EA0CF889F4FF2C
:102E300004C08A81813309F4EA941E144CF528E019
:102E40002E1548F12CC016FD2AC08F2D90E08A1552
:102E50009B0544F03CEFA3163FEFB3061CF010684F
:102E600001C0FA94FF2049F0E2E0F0E0EC0FFD1F12
:102E7000EF0DF11D80818033A1F317FF10C0EF2CFF
:102E8000E3948F2D90E0A816B90644F4FA1807C011
:102E9000EE24E39404C098E0E92E01C0FF2417FF5C
:102EA00007C01A141B043CF495012F5F3F4F05C067
:102EB00025E030E002C021E030E0002311F02F5F78
:102EC0003F4FFF2029F08F2D90E00196280F391FEA
:102ED0008D2D90E02817390714F4D21A01C0DD2493
:102EE000612E7724C30189709070009749F406C061
:102EF00080E290E0B4010E945E1CDA94DD20C1F70C
:102F0000002329F0802F90E0B4010E945E1C63FC36
:102F100009C006C080E390E0B4010E945E1CDA9410
:102F2000DD20C1F717FF48C08501B7FE02C000E0F1
:102F300010E06624772495012E1931092A8B3B8BEA
:102F40002501401A510A420C531C6F2D70E0EE24EB
:102F5000FF24E61AF70A3FEF0F3F130729F48EE22A
:102F600090E0B4010E945E1CA016B10654F02A89BC
:102F70003B89201731072CF4F201E60DF71D818102
:102F800001C080E3015010400894611C711C0E15B3
:102F90001F052CF090E0B4010E945E1CDCCF0A15E6
:102FA0001B0541F49A81963320F4953319F438893E
:102FB00034FF81E390E049C08A81813311F09FEEB4
:102FC000C92290E0B4010E945E1CFF2089F08EE2CD
:102FD00090E0B4010E945E1C12E0F101E10FF11DCE
:102FE0001F5F808190E0B4010E945E1CFA94A9F7F3
:102FF00064FE03C085E490E002C085E690E0B40181
:103000000E945E1CB7FC05C0A114B10441F4C4FECB
:1030100006C0B094A194B108B3948DE201C08BE2D4
:1030200090E0B4010E945E1C80E305C08F5FE6EF74
:10303000FFEFAE0EBF1EFAE0AF16B104BCF790E092
:10304000B4010E945E1CC501C096B4010E945E1CC2
:103050004DC1833631F0833789F0833509F059C08B
:1030600022C09A012E5F3F4F2C873D87FA01808155
:10307000898381E0E82EF12C510113C09A012E5F63
:103080003F4F2C873D87FA01A080B18016FF03C017
:103090006F2D70E002C06FEF7FEFC5010E94361CFC
:1030A0007C011F7714C09A012E5F3F4F2C873D870C
:1030B000FA01A080B18016FF03C06F2D70E002C03E
:1030C0006FEF7FEFC5010E942B1C7C01106813FD80
:1030D0001CC006C080E290E0B4010E945E1CDA943D
:1030E0008D2D90E0E816F906A8F30FC0F50117FD45
:1030F000859117FF81915F0190E0B4010E945E1CF1
:10310000D110DA940894E108F108E114F10471F7A0
:10311000EDC0843611F0893671F59A0117FF0AC0A7
:103120002C5F3F4F2C873D87FA0180819181A281DE
:10313000B3810BC02E5F3F4F2C873D87FA01808102
:103140009181AA2797FDA095BA2F012F0F76B7FF7F
:1031500008C0B095A095909581959F4FAF4FBF4FF8
:103160000068BC01CD01A1012AE030E00E94B21C40
:10317000E82EE21841C0853721F41F7E2AE030E0B6
:1031800020C0197F8F36A9F0803720F4883509F0E8
:10319000B0C00BC0803721F0883709F0AAC001C049
:1031A000106114FF09C0146007C014FF08C0166046
:1031B00006C028E030E005C020E130E002C020E198
:1031C00032E0CA0117FF09C004968C879D87FA0177
:1031D000608171818281938108C002968C879D876E
:1031E000FA016081718180E090E0A1010E94B21C2F
:1031F000E82EE218012F0F7706FF09C00E7FEF14AB
:1032000030F404FF06C002FD04C00F7E02C01E2D74
:1032100001C01F2D802F90E004FF0CC0FE01EE0DB9
:10322000F11D2081203311F4097E09C002FF06C080
:103230001E5F05C086789070009709F01F5FA02E72
:10324000BB2403FD12C000FF0DC0FE2C1D1550F461
:10325000FD0CF11A1D2D06C080E290E0B4010E9421
:103260005E1C1F5F1D15C0F304C01D1510F4D11A9C
:1032700001C0DD24A4FE0FC080E390E0B4010E94F1
:103280005E1CA2FE1FC0A1FE03C088E590E010C036
:1032900088E790E00DC0C50186789070009791F0A6
:1032A000A1FC02C080E201C08BE207FD8DE290E04C
:1032B000B4010E945E1C06C080E390E0B4010E944D
:1032C0005E1CFA94EF14C0F3EA94F101EE0DF11DC7
:1032D000808190E0B4010E945E1CEE20A9F706C038
:1032E00080E290E0B4010E945E1CDA94DD20C1F718
:1032F0008ECCF4018681978102C08FEF9FEF659697
:10330000CDBFDEBFDF91CF911F910F91FF90EF9066
:10331000DF90CF90BF90AF909F908F907F906F90F5
:103320005F904F903F902F9008955058BB27AA2749
:103330000ED01CC10DD130F012D120F031F49F3FDE
:1033400011F41EF402C10EF4E095E7FBF8C0E92F7A
:103350001ED180F3BA17620773078407950718F028
:1033600071F49EF536C10EF4E0950B2EBA2FA02D08
:103370000B01B90190010C01CA01A0011124FF2722
:10338000591B99F0593F50F4503E68F11A16F0401D
:10339000A22F232F342F4427585FF3CF469537951C
:1033A0002795A795F0405395C9F77EF41F16BA0BE1
:1033B000620B730B840BBAF09150A1F0FF0FBB1F8F
:1033C000661F771F881FC2F70EC0BA0F621F731FD8
:1033D000841F48F4879577956795B795F7959E3F35
:1033E00008F0B3CF9395880F08F09927EE0F9795C3
:1033F000879508950CD0BAC0B2D040F0A9D030F073
:1034000021F45F3F19F09BC05111E4C09EC0BFD0B2
:1034100098F39923C9F35523B1F3951B550BBB279B
:10342000AA2762177307840738F09F5F5F4F220F48
:10343000331F441FAA1FA9F333D00E2E3AF0E0E841
:1034400030D091505040E695001CCAF729D0FE2F8D
:1034500027D0660F771F881FBB1F2617370748071F
:10346000AB07B0E809F0BB0B802DBF01FF279358D5
:103470005F4F2AF09E3F510568F061C0ABC05F3FCF
:10348000ECF3983EDCF3869577956795B795F795BD
:103490009F5FC9F7880F911D9695879597F90895B5
:1034A000E1E0660F771F881FBB1F62177307840751
:1034B000BA0720F0621B730B840BBA0BEE1F88F760
:1034C000E0950895E89409C097FB3EF490958095A7
:1034D000709561957F4F8F4F9F4F9923A9F0F92FDA
:1034E00096E9BB279395F695879577956795B79558
:1034F000F111F8CFFAF4BB0F11F460FF1BC06F5F3E
:103500007F4F8F4F9F4F16C0882311F096E911C04F
:10351000772321F09EE8872F762F05C0662371F070
:1035200096E8862F70E060E02AF09A95660F771F84
:10353000881FDAF7880F9695879597F9089597F978
:103540009F6780E870E060E008959FEF80EC089549
:1035500000240A9416161706180609060895002472
:103560000A9412161306140605060895092E0394EC
:10357000000C11F4882352F0BB0F40F4BF2B11F460
:1035800060FF04C06F5F7F4F8F4F9F4F089557FDBF
:103590009058440F551F59F05F3F71F04795880FC1
:1035A00097FB991F61F09F3F79F087950895121658
:1035B00013061406551FF2CF4695F1DF08C0161604
:1035C00017061806991FF1CF8695710561050894B5
:1035D0000895E894BB2766277727CB0197F90895CC
:1035E0000BD0C4CFB5DF28F0BADF18F0952309F06F
:1035F000A6CFABCF1124EECFCADFA0F3959FD1F3B6
:10360000950F50E0551F629FF001729FBB27F00D90
:10361000B11D639FAA27F00DB11DAA1F649F6627E5
:10362000B00DA11D661F829F2227B00DA11D621F34
:10363000739FB00DA11D621F839FA00D611D221FEE
:10364000749F3327A00D611D231F849F600D211DD2
:10365000822F762F6A2F11249F5750408AF0E1F075
:1036600088234AF0EE0FFF1FBB1F661F771F881FBE
:1036700091505040A9F79E3F510570F060CFAACFFE
:103680005F3FECF3983EDCF3869577956795B795A9
:10369000F795E7959F5FC1F7FE2B880F911D9695D3
:1036A000879597F90895283008F027E03327DA0145
:1036B000990F311D87FD916000966105710539F400
:1036C00032602E5F3D9330E32A95E1F708959F3FE6
:1036D00030F080387105610509F03C5F3C5F3D9337
:1036E000913008F08068911DDF93CF931F930F9363
:1036F000FF92EF92192F987F9695E92F96959695C0
:10370000E90FFF27E95DFB4F99273327EE24FF24BC
:10371000A701E70105900894079428F4360FE71EE7
:10372000F81E491F511D660F771F881F991F0694A9
:10373000A1F70590079428F4E70EF81E491F561FBD
:10374000C11D770F881F991F661F0694A1F705906A
:10375000079428F4F80E491F561FC71FD11D880F64
:10376000991F661F771F0694A1F70590079420F410
:10377000490F561FC71FD81F990F661F771F881F35
:103780000694A9F784911095177041F0D695C795C6
:1037900057954795F794E7941A95C1F7EDECF3E048
:1037A00068941590159135916591959105907FE2FA
:1037B0007395E118F10A430B560BC90BD009C0F7FA
:1037C000E10CF11E431F561FC91FD01D7EF470333C
:1037D00011F48A95E6CFE894015030F0080F0AF40E
:1037E0000027021708F4202F2395022F7A3328F0A0
:1037F00079E37D932A95E9F710C07D932A9589F6A0
:10380000069497956795379517951794E118F10ADF
:10381000430B560BC90BD00998F023957E917395F5
:103820007A3308F070E37C932013B8F77E917061CF
:103830007D9330F0839571E37D9370E32A95E1F7F2
:103840001124EF90FF900F911F91CF91DF91992755
:1038500087FD90950895FC0105906150704001101E
:10386000D8F7809590958E0F9F1F0895FC016150A9
:10387000704001900110D8F7809590958E0F9F1F92
:1038800008950F931F93CF93DF93CDB7DEB70885CD
:103890001985AE01445F5F4FF8018381886083839F
:1038A000C8016A857B850E94E615F8012381277F80
:1038B0002383DF91CF911F910F9108950F931F9351
:1038C000CF93DF938C01EB018B8181FF1BC082FFC3
:1038D0000DC02E813F818C819D812817390764F4AA
:1038E000E881F9810193E883F98306C0E885F985C9
:1038F000802F1995009731F48E819F8101968E83D8
:103900009F8302C00FEF1FEFC801DF91CF911F917E
:103910000F910895EF92FF920F931F93CF93DF9330
:103920007C01EB018B8181FF13C000E010E00BC034
:10393000E885F985BE011995009711F00FEF1FEF8B
:103940000894E11CF11CF7018491882389F702C0D7
:103950000FEF1FEFC801DF91CF911F910F91FF90E3
:10396000EF900895FA01AA27283051F1203181F112
:10397000E8946F936E7F6E5F7F4F8F4F9F4FAF4F77
:10398000B1E03ED0B4E03CD0670F781F891F9A1F8A
:10399000A11D680F791F8A1F911DA11D6A0F711D3E
:1039A000811D911DA11D20D009F468943F912AE04A
:1039B000269F11243019305D3193DEF6CF01089532
:1039C000462F4770405D4193B3E00FD0C9F7F6CF63
:1039D000462F4F70405D4A3318F0495D31FD40522B
:1039E000419302D0A9F7EACFB4E0A69597958795C1
:1039F00077956795BA95C9F70097610571050895A0
:103A00009B01AC010A2E069457954795379527954B
:103A1000BA95C9F7620F731F841F951FA01D0895E3
:043A2000F894FFCF48
:0A3A24000400060008000A00D82381
:00000001FF
